{
  "_format": "hh-sol-artifact-1",
  "contractName": "EIP712Bridge",
  "sourceName": "contracts/EIP712Bridge.sol",
  "abi": [
    {
      "inputs": [],
      "stateMutability": "nonpayable",
      "type": "constructor"
    },
    {
      "anonymous": false,
      "inputs": [
        {
          "indexed": true,
          "internalType": "address",
          "name": "user",
          "type": "address"
        },
        {
          "indexed": false,
          "internalType": "uint256",
          "name": "pgirlsAmount",
          "type": "uint256"
        },
        {
          "indexed": false,
          "internalType": "uint256",
          "name": "ethAmount",
          "type": "uint256"
        }
      ],
      "name": "BridgedToETH",
      "type": "event"
    },
    {
      "anonymous": false,
      "inputs": [
        {
          "indexed": true,
          "internalType": "address",
          "name": "user",
          "type": "address"
        },
        {
          "indexed": false,
          "internalType": "uint256",
          "name": "ethAmount",
          "type": "uint256"
        },
        {
          "indexed": false,
          "internalType": "uint256",
          "name": "pgirlsAmount",
          "type": "uint256"
        }
      ],
      "name": "BridgedToPGirls",
      "type": "event"
    },
    {
      "anonymous": false,
      "inputs": [
        {
          "indexed": true,
          "internalType": "address",
          "name": "previousOwner",
          "type": "address"
        },
        {
          "indexed": true,
          "internalType": "address",
          "name": "newOwner",
          "type": "address"
        }
      ],
      "name": "OwnershipTransferred",
      "type": "event"
    },
    {
      "anonymous": false,
      "inputs": [
        {
          "indexed": true,
          "internalType": "address",
          "name": "sender",
          "type": "address"
        },
        {
          "indexed": false,
          "internalType": "uint256",
          "name": "amount",
          "type": "uint256"
        }
      ],
      "name": "Received",
      "type": "event"
    },
    {
      "inputs": [
        {
          "internalType": "uint256",
          "name": "pgirlsAmount",
          "type": "uint256"
        }
      ],
      "name": "bridgeToETH",
      "outputs": [],
      "stateMutability": "nonpayable",
      "type": "function"
    },
    {
      "inputs": [
        {
          "internalType": "address",
          "name": "user",
          "type": "address"
        },
        {
          "internalType": "uint256",
          "name": "ethAmount",
          "type": "uint256"
        }
      ],
      "name": "bridgeToPGirls",
      "outputs": [],
      "stateMutability": "nonpayable",
      "type": "function"
    },
    {
      "inputs": [],
      "name": "owner",
      "outputs": [
        {
          "internalType": "address",
          "name": "",
          "type": "address"
        }
      ],
      "stateMutability": "view",
      "type": "function"
    },
    {
      "inputs": [],
      "name": "pgirlsToken",
      "outputs": [
        {
          "internalType": "contract IPGirlsToken",
          "name": "",
          "type": "address"
        }
      ],
      "stateMutability": "view",
      "type": "function"
    },
    {
      "inputs": [],
      "name": "rateDenominator",
      "outputs": [
        {
          "internalType": "uint256",
          "name": "",
          "type": "uint256"
        }
      ],
      "stateMutability": "view",
      "type": "function"
    },
    {
      "inputs": [],
      "name": "rateNumerator",
      "outputs": [
        {
          "internalType": "uint256",
          "name": "",
          "type": "uint256"
        }
      ],
      "stateMutability": "view",
      "type": "function"
    },
    {
      "inputs": [],
      "name": "renounceOwnership",
      "outputs": [],
      "stateMutability": "nonpayable",
      "type": "function"
    },
    {
      "inputs": [
        {
          "internalType": "address",
          "name": "_pgirlsToken",
          "type": "address"
        }
      ],
      "name": "setPGirlsToken",
      "outputs": [],
      "stateMutability": "nonpayable",
      "type": "function"
    },
    {
      "inputs": [
        {
          "internalType": "uint256",
          "name": "numerator",
          "type": "uint256"
        },
        {
          "internalType": "uint256",
          "name": "denominator",
          "type": "uint256"
        }
      ],
      "name": "setRate",
      "outputs": [],
      "stateMutability": "nonpayable",
      "type": "function"
    },
    {
      "inputs": [],
      "name": "setSelfAsMinter",
      "outputs": [],
      "stateMutability": "nonpayable",
      "type": "function"
    },
    {
      "inputs": [
        {
          "internalType": "address",
          "name": "newOwner",
          "type": "address"
        }
      ],
      "name": "transferOwnership",
      "outputs": [],
      "stateMutability": "nonpayable",
      "type": "function"
    },
    {
      "stateMutability": "payable",
      "type": "receive"
    }
  ],
  "bytecode": "0x608080604052346100665760008054336001600160a01b0319821681178355916001600160a01b03909116907f8be0079c531659141344cd1fd0a4f28419497f9722a3daafe3b4186f6b6457e09080a36103e860025560126003556107be908161006c8239f35b600080fdfe6080604081815260048036101561004b575b509050361561001f57600080fd5b513481527f88a5966d370b9919b20f3e2c13ff65706f196a4e32cc2c12bf57088f8852587460203392a2005b600092833560e01c9081630b36b8db146106495750806346df2ccb146105e2578063715018a61461058857806377aa501c146104355783816378dd0c55146103b05750806385e0f38b14610387578063865192f7146103685780638da5cb5b14610340578063c9b930ea146102f8578063eeef633d1461019e5763f2fde38b03610011573461019a57602036600319011261019a576100e8610665565b906100f1610680565b6001600160a01b03918216928315610148575050600054826bffffffffffffffffffffffff60a01b821617600055167f8be0079c531659141344cd1fd0a4f28419497f9722a3daafe3b4186f6b6457e0600080a380f35b906020608492519162461bcd60e51b8352820152602660248201527f4f776e61626c653a206e6577206f776e657220697320746865207a65726f206160448201526564647265737360d01b6064820152fd5b8280fd5b50903461019a57602036600319011261019a578135916101bf8315156106d8565b60015484906001600160a01b0316803b156102f4578351632770a7eb60e21b815233848201908152602081018790529091839183919082908490829060400103925af180156102ea576102d2575b505061022761021e60035485610715565b6002549061073e565b9081471061028f57508380828015610285575b8280929181923390f11561027b57907f231d6cfa12e892a40b2ba4744743b24bd703da2724dc31687009a0e6d2b366af91815193845260208401523392a280f35b81513d85823e3d90fd5b6108fc915061023a565b606490602084519162461bcd60e51b8352820152601a60248201527f496e73756666696369656e742045544820696e206272696467650000000000006044820152fd5b6102db9061075e565b6102e657833861020d565b8380fd5b84513d84823e3d90fd5b5080fd5b833461033d57602036600319011261033d57610312610665565b61031a610680565b60018060a01b03166bffffffffffffffffffffffff60a01b600154161760015580f35b80fd5b5050346102f457816003193601126102f457905490516001600160a01b039091168152602090f35b5050346102f457816003193601126102f4576020906003549051908152f35b5050346102f457816003193601126102f45760015490516001600160a01b039091168152602090f35b929050346104315782600319360112610431576103cb610680565b6001546001600160a01b031691823b1561042c578392604484928451958693849263cf456ae760e01b84523090840152600160248401525af190811561042357506104135750f35b61041c9061075e565b61033d5780f35b513d84823e3d90fd5b505050fd5b5050fd5b509190346102f457806003193601126102f457610450610665565b9060243561045c610680565b6001600160a01b03948386169384156105565761047a8315156106d8565b61049261048960025485610715565b6003549061073e565b966001541691823b156105525784516340c10f1960e01b81526001600160a01b03909216908201908152602081018890529091869183919082908490829060400103925af1801561054857610515575b507fcd3a19a36ccb2afdc6c1d7e7dc62f1dcf1649076e2a56225206b698bd39c1d7d92939482519182526020820152a280f35b936105417fcd3a19a36ccb2afdc6c1d7e7dc62f1dcf1649076e2a56225206b698bd39c1d7d949561075e565b93926104e2565b83513d87823e3d90fd5b8680fd5b835162461bcd60e51b8152602081840152600c60248201526b24b73b30b634b2103ab9b2b960a11b6044820152606490fd5b833461033d578060031936011261033d576105a1610680565b80546001600160a01b03198116825581906001600160a01b03167f8be0079c531659141344cd1fd0a4f28419497f9722a3daafe3b4186f6b6457e08280a380f35b503461019a578160031936011261019a57602435916105ff610680565b821561061057503560025560035580f35b906020606492519162461bcd60e51b8352820152601360248201527224b73b30b634b2103232b737b6b4b730ba37b960691b6044820152fd5b8490346102f457816003193601126102f4576020906002548152f35b600435906001600160a01b038216820361067b57565b600080fd5b6000546001600160a01b0316330361069457565b606460405162461bcd60e51b815260206004820152602060248201527f4f776e61626c653a2063616c6c6572206973206e6f7420746865206f776e65726044820152fd5b156106df57565b60405162461bcd60e51b815260206004820152600e60248201526d125b9d985b1a5908185b5bdd5b9d60921b6044820152606490fd5b8181029291811591840414171561072857565b634e487b7160e01b600052601160045260246000fd5b8115610748570490565b634e487b7160e01b600052601260045260246000fd5b67ffffffffffffffff811161077257604052565b634e487b7160e01b600052604160045260246000fdfea2646970667358221220106064eeaa70b90a7f9cd6dc85f9c27c5d67d3e28589a710520b568da22d40c864736f6c63430008140033",
  "linkReferences": {},
  "deployedLinkReferences": {}
}